:040200007305160567
:10F8000031408002B240805A2001C2435600D242A9
:10F81000F9105700D242F8105600F2D0F50022003D
:10F82000F2432A00F24006002600F24006004100A2
:10F8300032C20E3CF24081006100C2436000F240DF
:10F84000F8006200F24005006300D2C361000F3C83
:10F85000F24081006100C2D36000F24068006200A3
:10F86000C2436300F24031006400D2C36100D2D3CE
:10F87000010032D20443054404451453149200029B
:10F880000320F2C040002100149202020320F2C0C3
:10F89000800021003490AD48EE3B0443F2D040009C
:10F8A0002100F2D080002100E63F0412544266009D
:10F8B000E2B30300FD27C24467007490770006207E
:10F8C000B2408A040002B2407305020274907300D1
:10F8D0000620B2405C060002B2407305020274903A
:10F8E00061000620B24073050002B2408A040202A1
:10F8F000749064000620B24073050002B2405C06BA
:10F900000202749020000620B24073050002B2404B
:0AF9100073050202344100130013D6
:10FFE8000000000018F9AAF8000000000000000056
:08FFF80000000000000000F809
:00000001FF
