:10F80000B240805A2001C2435600D242F91057003C
:10F81000D242F8105600F2432200F2432A00184365
:10F8200032C2B240D2026001B24010006201B24066
:10F8300010006401B240B80B7401B24010006601C0
:10F84000B240540B7601B240409C720132D2FF3F6D
:10F85000F2D040002100F2D08000210000131442B9
:10F86000640114F3052492C36401F2C04000210036
:10F870001442660114F3052492C36601F2C08000AD
:04F880002100001350
:10FFE80000000000000000005EF850F8000000006B
:08FFF80000000000000000F809
:00000001FF
