:10F8000031408002B240805A2001C2435600D242A9
:10F81000F9105700D242F8105600F2D0F50022003D
:10F82000F2432A00F24006002600F24006004100A2
:10F8300032C20E3CF24081006100C2436000F240DF
:10F84000F8006200F24005006300D2C361000F3C83
:10F85000F24081006100C2D36000F24068006200A3
:10F86000C2436300F24031006400D2C36100163C21
:10F87000B240D2026001B24010006201B2401000FA
:10F880006401B240B80B7401B24010006601B2408E
:10F89000540B7601B240409C7201153CB240D2023A
:10F8A0008001B24010008201B24010008401B240D9
:10F8B000B80B9401B24010008601B240540B96017F
:10F8C000B240409C9201D2D30100F2404100670057
:10F8D00032D20D3C37404100C2476700E2B303001B
:10F8E000FD27C24767001753F93F74404100FF3FAF
:10F8F000F2D040002100F2D0800021000013144219
:10F90000640114F3052492C36401F2C04000210095
:10F910001442660114F3052492C36601F2C080000C
:10F9200021000013F2D040002100F2D0800021001D
:10F9300000131442840114F3052492C38401F2C01D
:10F94000400021001442860114F3052492C386016D
:10F95000F2C0800021000013041254426600E2B39A
:0EF960000300FD27C24467003441001300136A
:10FFE800000000006CF958F9FEF8F0F80000000075
:08FFF80032F924F9000000F8C1
:00000001FF
